:100000000C9446000C9465000C9465000C946500FB
:100010000C9465000C9465000C9465000C946500CC
:100020000C9465000C9465000C9465000C946500BC
:100030000C9465000C9465000C9465000C946500AC
:100040000C9465000C9465000C9465000C9465009C
:100050000C9465000C9465000C9465000C9465008C
:100060000C9465000C9465000C9465000C9465007C
:100070000C9465000C9465000C9465000C9465006C
:100080000C9465000C9465000C94650011241FBE4F
:10009000CFEFD0E4DEBFCDBF11E0A0E0B1E0ECEFE8
:1000A000F2E000E00BBF02C007900D92AE30B10746
:1000B000D9F721E0AEE0B1E001C01D92A631B20750
:1000C000E1F70E94A1000C947C010C940000CF93F6
:1000D000DF9300D00F92CDB7DEB789837B836A832D
:1000E00089818A3031F48A819B81BC018DE00E9434
:1000F000670080EC90E0FC018081882F90E08072A6
:100100009927892BB1F386EC90E02981FC012083AB
:1001100080E090E00F900F900F90DF91CF910895C5
:10012000CF93DF93CDB7DEB78AE790E0FC01208163
:100130008AE790E0206EFC0120830000DF91CF91E0
:100140000895CF93DF93CDB7DEB784E290E02FEF31
:10015000FC01208385E290E0FC0110828AE290E0BD
:100160002FEFFC0120838BE290E0FC0110820E94C3
:1001700090008FEF90E0909311018093100188E739
:1001800090E0FC0180819181909313018093120192
:1001900080911001909111019C013695279536951B
:1001A000279536952795809112019091130182171A
:1001B000930718F081E080930F0140911001509156
:1001C00011019A01A3E9B4E20E946D019A01281B72
:1001D000390B36952795820F931F9C0136952795ED
:1001E00036952795809112019091130182179307FC
:1001F00018F083E080930F0180911001909111011C
:100200009C01ABEABAEA0E946D019C0136952795E4
:1002100036952795809112019091130182179307CB
:1002200018F087E080930F018091100190911101E7
:100230009C01ADECBCEC0E946D019C0136952795AC
:10024000369527958091120190911301821793079B
:1002500018F08FE080930F018091100190911101AF
:100260009C0136952795369527958091120190919E
:1002700013018217930718F08FE180930F0180918B
:100280001001909111019C01ABEABAEA0E946D0144
:100290009C01369527958091120190911301821748
:1002A000930718F08FE380930F01809110019091D4
:1002B00011019C01369527958091120190911301AF
:1002C0008217930718F08FE780930F0185E290E083
:1002D00020910F01FC01208352CFA29FB001B39F58
:1002E000C001A39F700D811D1124911DB29F700D3F
:0C02F000811D1124911D0895F894FFCF8A
:0E02FC0000000002000000006700000000008B
:00000001FF
