:100000000C9446000C9465000C9465000C946500FB
:100010000C9465000C9465000C9465000C946500CC
:100020000C9465000C9465000C9465000C946500BC
:100030000C9465000C9465000C9465000C946500AC
:100040000C9465000C9465000C9465000C9465009C
:100050000C9465000C9465000C9465000C9465008C
:100060000C9465000C9465000C9465000C9465007C
:100070000C9465000C9465000C9465000C9465006C
:100080000C9465000C9465000C94650011241FBE4F
:10009000CFEFD0E4DEBFCDBF11E0A0E0B1E0E6ECF1
:1000A000F1E000E00BBF02C007900D92AE30B10747
:1000B000D9F721E0AEE0B1E001C01D92A231B20754
:1000C000E1F70E94A1000C94E1000C940000CF9392
:1000D000DF9300D00F92CDB7DEB789837B836A832D
:1000E00089818A3031F48A819B81BC018DE00E9434
:1000F000670080EC90E0FC018081882F90E08072A6
:100100009927892BB1F386EC90E02981FC012083AB
:1001100080E090E00F900F900F90DF91CF910895C5
:10012000CF93DF93CDB7DEB78AE790E0FC01208163
:100130008AE790E0206EFC0120830000DF91CF91E0
:100140000895CF93DF93CDB7DEB784E290E02FEF31
:10015000FC01208385E290E0FC0110828AE290E0BD
:100160002FEFFC0120838BE290E0FC0110820E94C3
:10017000900088E790E0FC018081918190931101CB
:1001800080931001809110019091110180930F01D3
:100190008091100190911101929582958F7089271D
:1001A0009F70892780930E0185E290E020910F01D6
:1001B000FC0120838BE290E020910E01FC01208362
:0601C000D8CFF894FFCF38
:0E01C6000000000200000000670000000000C2
:00000001FF
